:020000040800F2
:10000000300600209D0100083F1300085F12000821
:100010003D130008A9020008C517000800000000F1
:100020000000000000000000000000004313000872
:100030008103000800000000411300084513000878
:10004000B7010008B7010008B7010008B7010008B0
:10005000B7010008B7010008B7010008B7010008A0
:10006000B7010008B7010008B7010008B701000890
:10007000B7010008B7010008B7010008B701000880
:10008000AD020008B9020008B7010008B701000876
:10009000B7010008B7010008B7010008B701000860
:1000A000B7010008B7010008B7010008B701000850
:1000B000B7010008B7010008B7010008B701000840
:1000C000B7010008B7010008B7010008B701000830
:1000D000B7010008B7010008B7010008B701000820
:1000E000B7010008B7010008B7010008B701000810
:1000F000B7010008B7010008B7010008B701000800
:10010000B7010008B7010008B7010008B7010008EF
:10011000B7010008B7010008B7010008B7010008DF
:10012000B7010008B7010008C5020008B7010008C0
:10013000B7010008B7010008B7010008B7010008BF
:10014000B7010008B7010008B7010008B7010008AF
:10015000B7010008B7010008D1020008B701000884
:10016000B7010008B7010008B7010008B70100088F
:10017000B7010008B7010008B7010008000000003F
:10018000B7010008B7010008DFF80CD000F07AF8DA
:100190000048004705180008300600200648804740
:1001A00006480047FEE7FEE7FEE7FEE7FEE7FEE75C
:1001B000FEE7FEE7FEE7FEE7CD1300088901000831
:1001C0002DE9F05F0546002092469B46884606468C
:1001D000814640241BE0284641464746224600F01F
:1001E00041F853465A46C01A914110D31146184659
:1001F000224600F028F82D1A67EB01084F462246E8
:100200000120002100F01FF817EB00094E41201ECD
:10021000A4F10104DFDC484631462A464346BDE8E6
:10022000F09FD2B201E000F8012B491EFBD27047CB
:100230000022F6E710B513460A4604461946FFF7B2
:10024000F0FF204610BD202A04DB203A00FA02F11C
:10025000002070479140C2F1200320FA03F31943B4
:1002600090407047202A04DB203A21FA02F0002156
:10027000704721FA02F3D040C2F1200291400843B6
:1002800019467047064C074D06E0E06840F0010350
:1002900094E8070098471034AC42F6D3FFF778FF94
:1002A000B4180008D4180008FEE70000014800F068
:1002B00069B80000D0010020014800F063B80000D8
:1002C00070010020014800F05DB80000B00000207F
:1002D000014800F057B80000100100200168182301
:1002E000CAB2103AB2FBF3F2054B6FF30901032ACD
:1002F0009B5CC36500D9091D8165084670470000F5
:100300009418000810B5014600208B698A6A4FF0E6
:10031000C07453B1B3F5005F15D072B1012A0CD08F
:10032000022A0AD0032A09D104E01AB1012A06D010
:10033000022A03D1C96AC90100D5012010BDC96ACA
:10034000A142FAD010BD002AF7D0012AF2D0022A29
:10035000F3D0032AF3D010BD30B50468256825F426
:1003600080252560046863608368402B036803D0A0
:1003700099600068C26030BD9A600068C16030BD9D
:10038000704770472DE9F84304464FF00009CDF857
:10039000009063484FF41651A56D0068B0FBF1F76B
:1003A0002E6894F85C10082000FA01F131420FD059
:1003B00021680A6852070BD50A6822F004020A6015
:1003C00094F85C108840A860606D40F001006065A2
:1003D00094F85C104FF0010808FA01F0304208D0A0
:1003E00021684969090604D5A860606D40F00200E3
:1003F000606594F85C1004208840304208D0216881
:100400000968890704D5A860606D40F00400606544
:1004100094F85C1010208840304218D02168096898
:10042000090714D5A86020680168490304D500684D
:10043000000308D5A16C07E00168C90503D4016871
:1004400021F008010160216C09B12046884794F829
:100450005C1020208840304231D021680968C906EC
:100460002DD5A86094F8350005282068016806D0CD
:10047000490347D5006800031DD4616C1CE021F0DE
:10048000160101602068416921F080014161206C02
:1004900008B9A06C20B12068016821F00801016052
:1004A00094F85C103F208840A86084F8349084F869
:1004B0003580216D1FE0E16B09B120468847606DF2
:1004C00000282BD0606DC00714D0052084F83500BB
:1004D0002068016821F0010101600098401C009033
:1004E000B84203D820680068C007F6D184F8349079
:1004F00084F83580E16C002910D001B02046BDE8B9
:10050000F04308470168C905D5D4016821F01001FE
:10051000016084F8349084F83580CCE7BDE8F88336
:10052000100000202DE9F041044600F097F906463E
:100530005CB1002584F83450022084F8350020682E
:10054000016821F0010101600DE00120BDE8F081AA
:1005500000F084F9801B052805D920206065032060
:1005600084F83500F2E720680068C007F0D12268FF
:10057000116820480140D4E901031843D4E9033647
:100580003343184363691843A3691843E369184365
:10059000236A18430843616A042903D1D4E90B1381
:1005A00019430843106020684069666A20F007011B
:1005B00030460E43012704280CD1A06A0643E06AA6
:1005C00040B12046FFF79EFE20B14020606584F8D0
:1005D0003570BAE7206846612046FFF77FFE94F841
:1005E0005C203F2191408160656584F83570002072
:1005F000ACE700003F8010F02DE9F0410446866D25
:1006000090F83400002501280DD0012084F8340032
:1006100094F835700020012F07D084F834000225AB
:100620002846BDE8F0810220FBE7022784F83570F8
:1006300060652046FFF790FE94F85C103F208840EC
:10064000B0602068016841F01601016020684169CE
:1006500041F080014161206C20B12068016841F0C7
:10066000080101602068016841F001010160D7E7DD
:1006700070B5044600F0F2F80546601C02D004484C
:100680000078044400F0EAF8401BA042FAD370BDA1
:10069000040000202DE9F84FDFF87CB100224FF074
:1006A00001084FF0030A4FF00F090BF1040E00BFD1
:1006B0000B6808FA02F42340A3426ED14D68022D64
:1006C00001D0122D0ED1D50800EB850CDCF820509E
:1006D0005607F70E09FA07F6B5430E69BE402E43DA
:1006E000CCF82060066855000F790AFA05FC07F07F
:1006F000030726EA0C06AF40374307604E68012E19
:1007000005D0022E03D0112E01D0122E0ED18668F4
:10071000CF6826EA0C06AF40374387604668A64399
:100720000C79C4F30014944034434460C6688C6868
:1007300026EA0C06AC403443C4604C68E40065D53E
:10074000364C256845F480452560246822F0030571
:1007500004F480440094324C2E19D6F808489507CA
:100760002F0F09FA07F5AC432E4DA84201D1002501
:1007700024E02D4DA84201D101251FE02B4DA842B8
:1007800001D102251AE02A4DA84201D1032515E026
:10079000284DA84202D1042510E037E0264DA8429A
:1007A00001D105250AE0254DA84201D1062505E025
:1007B000234DA84201D1072500E00825BD4025436F
:1007C000C6F80858DBF800405D464E689C43F603C7
:1007D00000D51C432C60DEF8004075464E689C43F3
:1007E000B60300D51C432C600B4D08352C684E68B1
:1007F0009C43F60200D51C432C60074D0C352C6839
:100800004E689C43B60200D51C432C60521C102A33
:10081000FFF44EAFBDE8F88F003C01404438024081
:100820000030014000000240000402400008024085
:10083000000C024000100240001402400018024068
:10084000001C0240426931EA020200D109048161C0
:1008500070470AB1816170470904FBE7014880686D
:1008600070470000040000200248816802781144AB
:1008700081607047040000200B4810B5016841F406
:1008800000710160016841F480610160016841F418
:1008900080710160032000F06FF8002000F006F87E
:1008A00000F024F8002010BD003C024070B50D4D52
:1008B00004464FF47A712878B1FBF0F00A490968D0
:1008C000B1FBF0F000F0E0FA48B9102C07D200229A
:1008D0002146501E00F030F800206C6070BD0120F1
:1008E00070BD000004000020100000200A4808B578
:1008F000016841F480410160006800F4804000908C
:100900000548001F016841F080510160006800F057
:100910008050009008BD000044380240002809DBE8
:1009200000F01F02012191404009800000F1E02009
:10093000C0F8001170470000F0B40E4B1B680C4665
:10094000C3F30223C3F10705042D00D90425191DA3
:10095000072901D2002300E0DB1E012606FA05F17B
:10096000491E214099409E40761E16403143F0BCFE
:1009700000F029BF0CED00E0064900F0070208680E
:100980004FF6FF03184040EA0220034A1043086074
:10099000704700000CED00E00000FA052DE9F0477B
:1009A0000E46050065D0DFF81481D8F80000F7B2D4
:1009B00000F00F00B04207D288F80070D8F80000AD
:1009C00000F00F00B04254D128683D4C810712D589
:1009D000400703D5206840F4E050206028780007E5
:1009E00003D5206840F4604020602068A96820F0AA
:1009F000F000084320602878C0072DD0304968688F
:100A00000839012812D0022813D0032811D0096810
:100A1000890700292DDA216821F0030101432160B3
:100A2000FFF71CFF814641F2883A0EE0096889030E
:100A3000EFE709688901ECE7FFF710FFA0EB090178
:100A4000514502D90320BDE8F0872068696800F0AD
:100A50000C00B0EB810FEFD1D8F80010404601F048
:100A60000F01B14207D90770006800F00F00B042D3
:100A700001D00120E7E72878400705D52068E9681C
:100A800020F4E050084320602878000706D520684D
:100A9000296920F4604040EAC100206000F036F887
:100AA0002168084AC1F30311515CC8400649086037
:100AB0000020FFF7FBFE0020C5E70000003C0240DD
:100AC000083802409C18000810000020044805491E
:100AD00000680968044AC1F38221515CC84070472C
:100AE0001000002008380240AC18000804480549EE
:100AF00000680968044AC1F34231515CC84070473C
:100B00001000002008380240AC180008154810B545
:100B1000006810F00C02144813D04110042A0FD0C2
:100B2000082A0ED10F4C241F2268236802F03F02CE
:100B30005B0207D52068C0F38810A0FB010106E026
:100B4000084610BD2168C1F38811A1FB00010023F4
:100B5000FFF736FB2168C1F30141491C4900B0FB96
:100B6000F1F010BD083802400024F4002DE9F84FE0
:100B7000050076D02878DFF8F8B2BE4CC00749D01F
:100B8000DBF800105846C1F38101012908D0006844
:100B9000C0F3810002280AD1201D0068400206D55A
:100BA0002068800336D568680028E2D032E06868A3
:100BB000B0F5803F10D0B0F5A02F206810D020F401
:100BC00080302060206820F4802020606868A0B118
:100BD000FFF744FE06460CE0206840F48030F4E75E
:100BE00040F480202060F7E7FFF738FE801B642880
:100BF00073D820688003F7D50CE0FFF72FFE064678
:100C000005E000BFFFF72AFE801B6428F0D82068AB
:100C10008003F7D42878DFF8608280074FF000095E
:100C20003ED5DBF80010584611F00C0F09D00068D3
:100C3000C0F3810002280BD18D48001F00684002DC
:100C400006D42068800715D5E868012809D111E08D
:100C5000E868B8B10120C8F80000FFF7FFFD0646BC
:100C600005E002E1FFF7FAFD801B0228C0D82068EA
:100C70008007F7D52068296920F0F80040EAC10014
:100C800020600DE0C8F80090FFF7E8FD064604E09C
:100C9000FFF7E4FD801B02281FD820688007F7D4E7
:100CA0002878000722D5724E744869696C3671B194
:100CB00001210160FFF7D2FD074604E0FFF7CEFDFA
:100CC000C01B022809D830688007F7D50EE0C0F8AD
:100CD0000090FFF7C3FD074605E083E0FFF7BEFD88
:100CE000C01B02287ED830688007F7D428784007D8
:100CF00068D5DFF87CA100270AF1380ADAF800008D
:100D0000C0000BD4DAF8001041F08051CAF800108E
:100D1000DAF80000012700F080500090584E30684B
:100D2000C00510D4306840F480703060FFF796FD45
:100D3000009005E0FFF792FD0099401A022851D873
:100D40003068C005F6D54A4EA868683601280FD02D
:100D50000528306810D020F001003060306820F0A5
:100D600004003060A868B8B1FFF778FD00900FE08C
:100D7000306840F00100F4E740F004003060F7E72D
:100D8000FFF76CFD0099411A41F28830814264D826
:100D900030688007F4D50EE0FFF760FD009007E0B3
:100DA000FFF75CFD0099411A41F28830814254D826
:100DB00030688007F4D42FB1DAF8001021F08051A8
:100DC000CAF80010A869C0B3DBF80010C1F38101B4
:100DD00002294AD00228484607D0C8F86000FFF729
:100DE0003DFD00E039E005463AE04746C8F86000BE
:100DF000FFF734FD064604E0FFF730FD801B0228B4
:100E00002BD820688001F7D4D5E907010843A96AE7
:100E10001C4A490802EB01416A6A41EA821108430F
:100E200095F82C1040EA01611148001F0160012073
:100E30003866FFF713FD054605E014E0FFF70EFDE9
:100E4000401B022809D820688001F7D50BE000BFBD
:100E5000FFF704FD401B022802D90320BDE8F88FEC
:100E600020688001F4D40020F8E70120F6E70000B4
:100E7000083802400038024000004742800E4742D6
:100E8000007000400000FFFF10B5401EB0F1807FF1
:100E900001D3012010BD4FF0E02460610F216017E5
:100EA00000F091FC0020A06107202061002010BD0F
:100EB000704770B5040004D094F83900002510B1D3
:100EC00006E0012070BD84F83850204600F022F87A
:100ED000242084F839002068C16821F40051C160E1
:100EE000204600F019FB2068016921F4904101615E
:100EF0002068416921F02A0141612068C16841F4FC
:100F00000051C160E563202084F8390084F83A007C
:100F1000002070BD2DE9F04F87B0044614216846CB
:100F2000FFF786F9DFF860810221D4F800C0574846
:100F3000012203230726DFF858E100258F064FF032
:100F4000400B4FF4807A4FF48069C4454AD1DFF8F2
:100F50003CC10CF1140CDCF8008048F01008CCF80F
:100F60000080DCF800C00CF0100CCDF814C0D0F8F4
:100F700000C04CF0010CC0F800C0006800F0010097
:100F8000059058028DE84F0069467046FFF782FBD6
:100F9000414E4048C8463060C6E90175C6E903596C
:100FA0007561C6E9065A3562D14630467562FFF76B
:100FB000B9FA08B1FFF7E5F96663B463374E35480F
:100FC000C6E903587561C6E906593562783075621D
:100FD00086E881083046FFF7A5FA08B1FFF7D1F996
:100FE00026634DE0DFF8B880C4454AD1DFF89CC0E5
:100FF0000CF1100CDCF8008048F40038CCF80080CC
:10100000DCF800C00CF4003CCDF814C0D0F800C0EF
:101010004CF0010CC0F800C0006800F00100059021
:101020000C208DE84F0069467046FFF733FB1E4EDB
:101030001C48B846C6E903597561C6E9065A3562C7
:10104000756286E801094F463046FFF76BFA08B132
:10105000FFF797F92663B4631248144E18383060CE
:10106000C6E90185C6E903577561B561F561356269
:1010700030467562FFF756FA08B1FFF782F96663EA
:10108000B46307B0BDE8F08F001001403038024073
:101090000000024040640240B00000201001002027
:1010A00000440040A060024070010020D0010020F8
:1010B000F8B5044690F83A0020283CD1C1B3BAB341
:1010C00094F83800012836D0012084F83800A16255
:1010D000A2850025E563222084F83A00636B174857
:1010E000D863636B16481864636B1648D864606BEA
:1010F000134605650846666B216802463046091DA1
:10110000FFF77AFA206801684168009184F8385046
:10111000C16841F48071C1602068416941F00101FA
:1011200041612068416941F0400141610020F8BD02
:10113000FFE70120FBE70220F9E700006B1400083D
:10114000A71400082114000810B5044600681349CC
:10115000884221D1124908782A2816D18878232874
:1011600013D148780F4B4FF48051012802D0022848
:1011700002D00AE0012200E000221846FFF769FBD6
:1011800002220949204600F013F82046BDE810402D
:1011900003220349FFF78CBF10BD0000004400404C
:1011A00094000020000C0240000000207047000066
:1011B00070B5044690F83900202830D169B362B385
:1011C00094F8380001282AD0012084F838002162E0
:1011D000A284E2840025E563212084F83900236B92
:1011E0001048D863236B10481864236B0F48D864E9
:1011F000206B134605652668206B321DFFF7FCF94E
:1012000021686FF04000086084F838502068416918
:1012100041F080014161002070BD012070BD0220BD
:1012200070BD0000B1140008DF140008211400088C
:10123000094A016891420DD10022C2844A6922F014
:1012400080024A610168CA6842F04002CA602021F7
:1012500080F8391070470000004400407047FEE7F6
:10126000194808B5016841F480010160016801F482
:1012700080010091016841F40011016000680022C2
:1012800000F40010009011461020FFF755FB1020CD
:10129000FFF744FB002211461120FFF74DFB112000
:1012A000FFF73CFB002211463A20FFF745FB3A20AE
:1012B000FFF734FB002211464620FFF73DFBBDE857
:1012C00008404620FFF72ABB3038024070B586B090
:1012D00014216846FEF7ACFF16480024016841F06F
:1012E00080010160016801F080010591016841F011
:1012F00001010160016801F001010591016841F0FF
:101300000801016000680C4E00F008004FF47045C1
:101310000590002229463046FFF79BFA01200095F0
:10132000CDE90104694630460394FFF7B3F906B0EE
:1013300070BD000030380240000C0240FEE77047EC
:1013400070477047FFF790BA30B593B030216846C8
:10135000FEF76EFF14210CA8FEF76AFF194800255E
:10136000016841F080510160006800F080501190E8
:101370001548016841F4804101600068022400F4CE
:101380008040119001200090000401908001CDE97F
:10139000064008AA0420A82182E813000B906846A2
:1013A000FFF7E4FB0CA90F2081E831004FF4A050B7
:1013B0000F90E002109005210CA8FFF7EFFA13B090
:1013C00030BD000040380240007000401048016805
:1013D00041F4700101600F48016841F001010160B2
:1013E0000C4A00210832116002680B4B1A4002605F
:1013F000031D0A4A1A60026822F48022026005482E
:101400000C300160024958068039086070470000BE
:1014100088ED00E000380240FFFFF6FE10300024A7
:1014200070B5846B2068406994F83910C0F3C0101F
:101430000025212904D118B1E584204600F062F886
:101440002068406994F83A10C0F38010222904D132
:1014500018B1E585204600F047F8E06B40F0100039
:10146000E0632046FFF724FD70BD10B50146806B98
:1014700009680968C90513D40021C1850168CA68D3
:1014800022F48072CA6001684A6922F001024A614E
:1014900001684A6922F040024A61202180F83A102E
:1014A000FFF752FE10BD10B5806BFFF77FFE10BD39
:1014B00010B50146806B09680968C9050CD4002184
:1014C000C18401684A6922F080024A610068C168EB
:1014D00041F04001C16010BDFFF7AAFE10BD10B57C
:1014E000806BFFF7BBFE10BD0168CA6822F49072E2
:1014F000CA6001684A6922F001024A61202180F82D
:101500003A1070470168CA6822F0C002CA60202100
:1015100080F83910704700002DE9F041044600685A
:101520000169E26821F44051114301612169A06819
:10153000E26908436169114322680843D16849F2AE
:101540000C6399430143D16020684169A26921F489
:10155000407111434161E2696425B2F5004F97483B
:10156000974922684FF032083FD08A4201D0824228
:101570007CD1FFF7BBFA00EBC00101EB0010616802
:101580008900B0FBF1F6FFF7B1FA00EBC00101EB07
:10159000001061688900B0FBF1F0B0FBF5F06FF06E
:1015A0001801484306EB800108EB0110B0FBF5F091
:1015B00000F0F006FFF79AFA00EBC00101EB001013
:1015C00061688900B0FBF1F0B0FBF5F006EB0016A6
:1015D000FFF78CFA00EBC00101EB00106168890095
:1015E000B0FBF1F7FFF782FAD2E08A4201D08242E3
:1015F0003DD1FFF77BFA00EBC00101EB0010616801
:101600004900B0FBF1F0B0FBF5F00601FFF76EFA10
:1016100000EBC00101EB001061684900B0FBF1F77D
:10162000FFF764FA00EBC00101EB001061684900AC
:10163000B0FBF1F0B0FBF5F06FF01801484307EB99
:10164000800108EBC100B0FBF5F000F0F80006EBFC
:101650004006FFF74BFA00EBC00101EB0010616898
:101660004900B0FBF1F7FFF741FA3CE055E0FFF726
:101670002DFA00EBC00101EB001061684900B0FBDE
:10168000F1F0B0FBF5F00601FFF720FA00EBC00126
:1016900001EB001061684900B0FBF1F7FFF716FAA3
:1016A00000EBC00101EB001061684900B0FBF1F0F4
:1016B000B0FBF5F06FF01801484307EB800108EB31
:1016C000C100B0FBF5F000F0F80006EB4006FFF7B4
:1016D000FDF900EBC00101EB001061684900B0FBAF
:1016E000F1F7FFF7F3F900EBC00101EB00106168BF
:1016F0004900B0FBF1F0B0FBF5F06FF01801484382
:1017000007EB800108EBC100B0FBF5F000F007002B
:10171000216830448860BDE8F081FFF7D7F900EB1D
:10172000C00101EB001061688900B0FBF1F6FFF722
:10173000CDF900EBC00101EB001061688900B0FB3E
:10174000F1F0B0FBF5F06FF01801484306EB8001B3
:1017500008EB0110B0FBF5F000F0F006FFF7B6F96A
:1017600000EBC00101EB001061688900B0FBF1F0F3
:10177000B0FBF5F006EB0016FFF7A8F900EBC0018F
:1017800001EB001061688900B0FBF1F7FFF79EF9EB
:1017900000EBC00101EB001061688900B0FBF1F0C3
:1017A000B0FBF5F06FF01801484307EB800108EB40
:1017B0000110B0FBF5F000F00F00A9E700140140A4
:1017C00000100140FEE70907090E002804DB00F1C4
:1017D000E02080F80014704700F00F0000F1E020D6
:1017E00080F8141D704702E008C8121F08C1002AC3
:1017F000FAD170477047002001E001C1121F002A92
:10180000FBD17047FFF738F8FFF79EFDFFF75EFD4D
:10181000FFF726FD1C481B494FF4165500240160B4
:10182000C0E901540C26C460C0E904468461C46167
:10183000FFF73FFB1448154940300160C0E90154EF
:10184000C460C0E904468461C461FFF732FB0E49FD
:10185000032280310C48FFF72BFC0B490322803117
:10186000A1F14000FFF724FC094D4FF400544FF460
:101870007A7621462846FEF7E5FF3046FEF7F8FE69
:10188000F7E7000000100140140000200044004071
:10189000000C0240000610160006101600000000A2
:1018A0000000000001020304060708090000000010
:1018B00001020304D41800080000002014000000F6
:1018C000E6170008E8180008140000201C060000B5
:1018D000F6170008410000000100000010000000A1
:0818E000000000000024F400E8
:040000050800018965
:00000001FF
