:020000040800F2
:10000000B80600209D010008E1220008B720000882
:10001000DD220008A90200088D2800080000000069
:10002000000000000000000000000000E5220008C1
:100030002704000800000000E3220008E72200086F
:10004000B7010008B7010008B7010008B7010008B0
:10005000B7010008B701000829040008B70100082B
:10006000B7010008B7010008B7010008B701000890
:10007000B7010008B7010008B7010008B701000880
:10008000DD020008ED020008B7010008B701000812
:10009000AD020008B7010008B7010008B701000869
:1000A000B7010008B7010008B7010008B701000850
:1000B000B7010008B7010008B7010008B701000840
:1000C000B7010008B7010008B7010008B701000830
:1000D000B7010008B7010008B7010008B701000820
:1000E000B7010008B7010008B7010008B701000810
:1000F000B7010008B7010008B7010008B701000800
:10010000B7010008B7010008B7010008B7010008EF
:10011000B7010008B7010008B7010008B7010008DF
:10012000B7010008B7010008FD020008B701000888
:10013000B7010008B7010008B7010008B7010008BF
:10014000B7010008B7010008B7010008B7010008AF
:10015000B7010008B70100080D030008B701000847
:10016000B7010008B7010008B7010008B70100088F
:10017000B7010008B7010008B7010008000000003F
:10018000B7010008B7010008DFF80CD000F07AF8DA
:1001900000480047E9280008B806002006488047C4
:1001A00006480047FEE7FEE7FEE7FEE7FEE7FEE75C
:1001B000FEE7FEE7FEE7FEE7A52300088901000849
:1001C0002DE9F05F0546002092469B46884606468C
:1001D000814640241BE0284641464746224600F01F
:1001E00041F853465A46C01A914110D31146184659
:1001F000224600F028F82D1A67EB01084F462246E8
:100200000120002100F01FF817EB00094E41201ECD
:10021000A4F10104DFDC484631462A464346BDE8E6
:10022000F09FD2B201E000F8012B491EFBD27047CB
:100230000022F6E710B513460A4604461946FFF7B2
:10024000F0FF204610BD202A04DB203A00FA02F11C
:10025000002070479140C2F1200320FA03F31943B4
:1002600090407047202A04DB203A21FA02F0002156
:10027000704721FA02F3D040C2F1200291400843B6
:1002800019467047064C074D06E0E06840F0010350
:1002900094E8070098471034AC42F6D3FFF778FF94
:1002A00094290008B429000800BFFEE710B50748EC
:1002B00000F0F5FA064B074A0021044800F031FA35
:1002C0000348007800030449086010BD18000020AE
:1002D0000500002058020020140C024010B502480E
:1002E00000F046FD10BD0000E001002010B50248FE
:1002F00000F03EFD10BD00008001002010B5024856
:1003000000F036FD10BD0000C000002010B502480E
:1003100000F02EFD10BD00002001002001460878ED
:1003200010381823B0FBF3F20848805CC865032A34
:1003300005D908686FF30900001D886503E00868A7
:100340006FF309008865886D704700007429000804
:10035000014600208A6A8B69CBB932B1012A0DD0DF
:10036000022A03D0032A10D10EE000BFCB6A03F0AB
:100370008073B3F1807F00D1012007E0CB6AB3F135
:10038000C07F00D1012001E000E000BF34E08B69B4
:10039000B3F5005F1AD132B1012A07D0022A03D087
:1003A000032A11D10AE000BF01200EE0CB6A03F05E
:1003B0008073B3F1807F00D1012006E0CB6AB3F1F6
:1003C000C07F00D1012000E000BF15E032B1012A5A
:1003D00005D0022A04D0032A0CD103E000BF00BFDD
:1003E000012008E0CB6A03F08073B3F1807F00D175
:1003F000012000E000BF00BF704730B504682468EA
:1004000024F4802405682C60046863608468402CB0
:1004100004D10468A2600468E16003E00468A1609C
:100420000468E26030BD704710B5002000E0401C59
:100430000B498842FBDB01210A4800F08DFF50B1D7
:1004400009480078401C08490870084B0A460849CA
:10045000084800F027F8012000F070FE10BD0000F1
:1004600040420F0000000240040000200000002075
:100470004002002018000020704710B5024692F894
:100480002030012B01D0022B06D1106840690843AF
:1004900014686061002010BD506A40F480205062F2
:1004A0000120F8E7F0B504460D461E4694F820708A
:1004B00020688368A86800B900E000BF012F01D060
:1004C000022F7CD103F0806030B903F0006018B9CE
:1004D00003F08050002873D0C3F30161022905D9CD
:1004E000606A40F4000060620120F0BD0120884095
:1004F0003060A86860B9B5F800C0E86840EA4C5CB4
:10050000206800F5C07000EB0110C0F800C00FE0DB
:10051000D5E901C040EACC00D5F80CC040EA0C0097
:10052000D4F800C00CF5C07C0CEB011CCCF800002A
:10053000D5F810C0206800F5C07000EB0110C0F8BD
:1005400004C0287D01280ED1206800F5C07000EBA2
:100550000110406840F4807C206800F5C07000EB1A
:100560000110C0F804C0D079000692F806C040EA35
:100570000C4092F805C040EA0C2C10794CEA000CB3
:10058000206800F5C07000EB0110C0F80CC0D078F6
:10059000000692F802C040EA0C4092F801C040EA1E
:1005A0000C2092F800C040EA0C00D4F800C00CF512
:1005B000C07C0CEB011CCCF80800206801E016E0C0
:1005C0000FE000F5C07000EB0110006840F0010C76
:1005D000206800F5C07000EB0110C0F800C00020DA
:1005E00083E7606A40F40010606201207DE7606A82
:1005F00040F480206062012077E70000F0B50446F7
:100600000A46216894F82050012D01D0022D7ED198
:10061000424901F50071086840F00100086008686F
:1006200020F47C5008600868566A40EA062008609A
:10063000107D00F01F06012000FA06F3C8699843F8
:10064000C861A1F50071D069C8B9D1F80C0298430E
:10065000C1F80C02908880B2968940EA064601F5FE
:100660001070576940F83760108880B2168940EAE8
:10067000064601F51070576900EBC7004660D06967
:10068000012819D1D1F80C021843C1F80C02908846
:1006900080B2168840EA064601F51070576940F8A6
:1006A0003760908980B2168940EA064601F51070DD
:1006B000576900EBC7004660906928B9D1F8040279
:1006C0009843C1F8040204E0D1F804021843C1F8C9
:1006D0000402106928B9D1F814029843C1F8140231
:1006E00004E0D1F814021843C1F81402106A01287A
:1006F00004D1D1F81C021843C1F81C02D1F8000241
:1007000020F00100C1F800020020F0BDFFE7606AA0
:1007100040F4802060620120F7E7000000640040A0
:10072000704770B5044694F82050012D01D0022D79
:100730007CD151B92068C06800F0030080B9606ABC
:1007400040F400106062012070BD2068006900F074
:10075000030028B9606A40F4001060620120F3E7EA
:10076000206800F5D87000EB0110006800F004006C
:100770009060906840B9206800F5D87000EB0110D7
:100780000068400D106007E0206800F5D87000EBAD
:1007900001100068C0085060206800F5D87000EBB8
:1007A0000110006800F002004008D060206800F5E9
:1007B000D87000EB0110406800F00F001061206855
:1007C00000F5D87000EB0110406800F47F40000A8B
:1007D0009061206800F5D87000EB01104068000CB3
:1007E0005061206800F5D87000EB01108068187027
:1007F000206800F5D87000EB0110806800F47F409D
:10080000000A5870206800F5D87000EB011080686D
:1008100000F47F00000C9870206800F5D87000EBA1
:1008200001108068000ED870206800E031E000F50B
:10083000D87000EB0110C0681871206800F5D870FE
:1008400000EB0110C06800F47F40000A5871206876
:1008500000F5D87000EB0110C06800F47F00000CB8
:100860009871206800F5D87000EB0110C068000E88
:10087000D87131B92068C06840F020002668F06067
:1008800005E02068006940F0200026683061002003
:100890005AE7606A40F480206062012054E72DE945
:1008A000F05F04460025206846692068D0F804906F
:1008B000206887682068D0F80CA02068D0F810B0B5
:1008C0002068D0F8188006F00100002855D007F005
:1008D0000100C0B101202168886007F0020018B152
:1008E000204600F03EFA0EE007F0040010B145F497
:1008F000006508E007F0080010B145F4805502E0FB
:10090000204600F02DFA07F48070C8B14FF48070D3
:100910002168886007F4007018B1204600F023FABF
:100920000EE007F4806010B145F4005508E007F4CC
:10093000006010B145F4804502E0204600F012FA54
:1009400007F48030C8B14FF480302168886007F424
:10095000003018B1204600F008FA0EE007F48020BD
:1009600010B145F4004508E007F4002010B145F44B
:10097000803502E0204600F0F7F906F0080038B1B3
:100980000AF0100020B145F4007510202168C860FD
:1009900006F0040040B10AF0080028B108202168E0
:1009A000C860204600F0A8F906F0020038B12068BF
:1009B000C06800F0030010B1204600F09EF906F078
:1009C000400038B10BF0100020B145F480651020D4
:1009D0002168086106F0200040B10BF0080028B142
:1009E000082021680861204600F088F906F0100010
:1009F00038B12068006900F0030010B1204600F013
:100A00007EF906F4003040B109F0100028B1102042
:100A100021684860204600F073F906F4803040B148
:100A200009F0080028B1082021684860204600F03D
:100A30009DF906F4004088B309F0040078B306F489
:100A4000807020B108F0010008B145F0010506F4FE
:100A5000007020B108F0020008B145F0020506F46C
:100A6000806020B108F0040008B145F0040506F4E8
:100A70000060A0B108F0700088B108F07000402854
:100A800017D006DC10280BD020280CD0302819D124
:100A90000CE0502810D0602814D110E01DE019E0BF
:100AA00045F008050FE045F010050CE045F0200585
:100AB00009E045F0400506E045F0800503E045F417
:100AC000807500E000BF00BF2068806920F07000E2
:100AD000216888610420216848602DB1606A28433C
:100AE00060622046FFF71CFEBDE8F09F70B504462B
:100AF0000CB9012070BD94F8200010B9204600F018
:100B0000AFF82068006820F002002168086000F05B
:100B100031FC05460DE000F02DFC401B0A2808D9E9
:100B2000606A40F400306062052084F820000120F3
:100B3000E0E72068406800F002000028EBD1206860
:100B4000006840F001002168086000F013FC0546D1
:100B50000DE000F00FFC401B0A2808D9606A40F441
:100B600000306062052084F820000120C2E7206880
:100B7000406800F001000028EBD0207E012806D15B
:100B80002068006840F080002168086005E0206867
:100B9000006820F0800021680860607E012806D18E
:100BA0002068006840F040002168086005E0206887
:100BB000006820F0400021680860A07E012806D16E
:100BC0002068006840F020002168086005E0206887
:100BD000006820F0200021680860E07E012806D12E
:100BE0002068006820F010002168086005E0206897
:100BF000006840F0100021680860207F012806D1BD
:100C00002068006840F008002168086005E020685E
:100C1000006820F0080021680860607F012806D184
:100C20002068006840F004002168086005E0206842
:100C3000006820F0040021680860D4E9020108433C
:100C400021690843616908436168491E08432168B6
:100C5000C86100206062012084F82000002049E77C
:100C600010B586B00446142101A8FFF7E1FA1F4928
:100C70002068884238D100BF002000901C480068DE
:100C800040F000701A4908600846006800F00070E3
:100C9000009000BF00BF00BF002000901448103833
:100CA000006840F0020012491039086008460068E8
:100CB00000F00200009000BF00BF4FF440700190B0
:100CC0000220029000200390032004900920059048
:100CD00001A9084800F040FA00221146142000F053
:100CE000D3FB142000F0C0FB06B010BD0064004030
:100CF0004038024000040240704770477047704718
:100D0000704770B5044694F82000012822D10220D3
:100D100084F820002068006820F001002168086045
:100D200000F028FB05460DE000F024FB401B0A28DC
:100D300008D9606A40F400306062052084F8200021
:100D4000012070BD2068406800F001000028EBD150
:100D50006062F6E7606A40F4002060620120F0E71C
:100D60007047704770477047704770477047000082
:100D7000F8B50446002000908C4800684FF41651E6
:100D8000B0FBF1F7A56D2E6894F85C100820884040
:100D9000304098B12068006800F0040070B120680D
:100DA000006820F004002168086094F85C100820B6
:100DB0008840A860606D40F00100606594F85C10A8
:100DC00001208840304068B12068406900F0800010
:100DD00040B194F85C1001208840A860606D40F03C
:100DE0000200606594F85C1004208840304068B1CF
:100DF0002068006800F0020040B194F85C10042004
:100E00008840A860606D40F00400606594F85C1054
:100E100010208840304078B32068006800F0080057
:100E200050B394F85C1010208840A86020680068D7
:100E300000F4802080B12068006800F4002028B908
:100E4000206CC8B12046216C884715E0A06C98B191
:100E50002046A16C88470FE02068006800F480708D
:100E600028B92068006820F0080021680860206C1C
:100E700010B12046216C884794F85C1020208840EF
:100E80003040002865D02068006800F0100000287D
:100E90005FD094F85C1020208840A86094F835005A
:100EA000052828D12068006820F016002168086015
:100EB0002068406920F0800021684861206C08B9F2
:100EC000A06C28B12068006820F008002168086044
:100ED00094F85C103F208840A86000BF002084F890
:100EE000340000BF012084F83500206D10B1204689
:100EF000216D8847F8BD2068006800F4802080B12B
:100F00002068006800F4002028B9606C10B1204609
:100F1000616C88471DE0E06BD8B12046E16B8847E3
:100F200017E02068006800F4807068B920680068E5
:100F300020F010002168086000BF002084F8340011
:100F400000BF012084F83500E06B10B12046E16B52
:100F50008847606D38B3606D00F00100F0B1052086
:100F600084F835002068006820F0010021680860DE
:100F700000BF0098401C0090B84200D905E02068EE
:100F8000006800F001000028F3D100BF00BF00207E
:100F900084F8340000BF012084F83500E06C10B103
:100FA0002046E16C884700BFA4E700001400002041
:100FB0002DE9F0410446002500F0DCF9074614B99C
:100FC0000120BDE8F081606A00B100BF00BF0020D1
:100FD00084F8340000BF022084F8350020680068DF
:100FE00020F00100216808600AE000F0C3F9C01B8E
:100FF000052805D920206065032084F83500E0E746
:101000002068006800F001000028EED12068056823
:1010100021480540D4E901010843E16808432169FA
:10102000084361690843A1690843E1690843216AEB
:1010300008430543606A042803D1D4E90B0108433F
:101040000543206805602068456925F00705606A4A
:101050000543606A04280DD1A06A0543E06A48B1DF
:101060002046FFF775F928B140206065012084F81B
:101070003500A6E7206845612046FFF74FF9064690
:1010800094F85C103F208840B0600020606501202B
:1010900084F83500002094E73F8010F02DE9F047F8
:1010A00004460D4616461F464FF00008D4F85890E7
:1010B00000BF94F83400012802D10220BDE8F08777
:1010C000012084F8340000BF94F8350001282BD1AA
:1010D000022084F83500002060653B4632462946F0
:1010E0002046FFF78AF994F85C103F208840C9F841
:1010F00008002068006840F0160021680860206839
:10110000406940F0800021684861206C28B1206867
:10111000006840F00800216808602068006840F01E
:1011200001002168086006E000BF002084F8340058
:1011300000BF4FF002084046C0E7704710B50446B4
:1011400004480068204020B1024804602046FFF7B0
:10115000F4FF10BD143C0140F8B502460B460025D3
:10116000002400200021DCE0012606FA01F51E68BB
:1011700006EA0504AC4273D15E68022E02D05E68B6
:10118000122E13D1CF0802F1200656F827004E0781
:10119000F70E0F26BE40B0434F07FF0E1E69BE403C
:1011A0003043CF0802F1200646F8270010684F00B0
:1011B0000326BE40B0431E7906F003064F00BE4032
:1011C000304310605E68012E08D05E68022E05D0A4
:1011D0005E68112E02D05E68122E13D190684F0007
:1011E0000326BE40B0434F00DE68BE4030439060EF
:1011F000506801268E40B0431E79C6F300168E401B
:1012000030435060D0684F000326BE40B0434F00CB
:101210009E68BE403043D0605E6806F08056B6F1EE
:10122000805F7DD100BF00260096404E366846F4B0
:1012300080463E4F3E603E46366806F48046009645
:1012400000BF00BF3A4E8F0856F827008E07370FB1
:101250000F26BE40B043374EB24202D1002624E0F2
:101260005EE0354EB24201D101261EE0334EB2425D
:1012700001D1022619E0324EB24201D1032614E018
:10128000304EB24201D104260FE02F4EB24201D1BE
:1012900005260AE02D4EB24201D1062605E02C4E6D
:1012A000B24201D1072600E008268F073F0FBE405B
:1012B00030431F4E8F0846F82700264E3068A04363
:1012C0005E6806F48036B6F5803F00D12043214E9B
:1012D0003060361D3068A0435E6806F40036B6F50F
:1012E000003F00D120431B4E361D3060361D306854
:1012F000A0435E6806F48016B6F5801F00D1204337
:10130000144E08363060361D3068A0435E6806F41F
:101310000016B6F5001F00D120430E4E0C3630608B
:10132000491C1029FFF420AFF8BD000044380240EA
:10133000083801400000024000040240000802405A
:10134000000C02400010024000140240001802404D
:10135000001C0240003C0140024613690B400BB1E7
:10136000012000E0002070470AB1816101E00B0418
:101370008361704701480068704700000800002042
:101380000348006803490978084401490860704728
:10139000080000201000002010B50D48006840F43F
:1013A00000700B4908600846006840F480600860DF
:1013B0000846006840F480700860032000F0A2F83E
:1013C000002000F007F800F02BF8002010BD00000E
:1013D000003C024070B504460E4800784FF47A7124
:1013E000B1FBF0F00C490968B1FBF0F5284600F0BC
:1013F000FFFB08B1012070BD102C07D2002221464E
:10140000501E00F041F80548046001E00120F2E7B9
:101410000020F0E710000020140000200C00002045
:1014200008B500BF002000900E48006840F48040DE
:101430000C4908600846006800F48040009000BF36
:1014400000BF00BF00200090081F006840F08050DF
:10145000091F08600846006800F08050009000BF37
:1014600000BF08BD4438024001460846002809DB99
:1014700000F01F0301229A4043099B0003F1E0237F
:10148000C3F8002100BF70472DE9F05F80460D468C
:101490001646002701F0FCF9074639462A4633462E
:1014A00001F00700C0F1070ABAF1040F02D94FF0AA
:1014B000040A01E0C0F1070AD14600F1040ABAF1BA
:1014C000070F02D24FF0000A01E0A0F1030AD44650
:1014D0004FF0010A0AFA09FAAAF1010A0AEA020A15
:1014E0000AFA0CFA4FF0010B0BFA0CFBABF1010BF3
:1014F0000BEA030B4AEA0B042146404601F0D0F9FF
:10150000BDE8F09F00BF00F00702064B19684FF6D8
:10151000FF031940044B0B4343EA0221014B1960BE
:1015200000BF70470CED00E00000FA0570B50446FE
:101530000D460CB9012070BD5848006800F00F003E
:10154000A84209D255490D700846006800F00F0006
:10155000A84201D00120EEE7207800F00200022826
:101560001DD1207800F00400042805D14C48006803
:1015700040F4E0504A490860207800F0080008284C
:1015800005D14748006840F4604045490860444838
:10159000006820F0F000A168084341490860207805
:1015A00000F00100A8B36068012807D13C48083862
:1015B0000068C0F34040B8B90120BCE76068022869
:1015C00002D06068032807D1354808380068C0F3A6
:1015D000406048B90120AEE7314808380068C0F3E0
:1015E000400008B90120A6E72D48006820F003005C
:1015F000616808432A490860FFF7BCFE064609E017
:10160000FFF7B8FE801B41F28831884202D90320DF
:1016100091E707E02248006800F00C006168B0EB39
:10162000810FEDD11D48006800F00F00A84209D9D4
:101630001A490D700846006800F00F00A84201D05A
:10164000012078E7207800F00400042807D114482E
:10165000006820F4E050E1680843114908602078F0
:1016600000F00800082808D10D48006820F4604008
:10167000216940EAC1000A49086000F03DF80849C4
:101680000968C1F30311074A515CC8400649086064
:101690000020FFF79FFE00204DE70000003C0240C5
:1016A000083802407C290008140000200148006826
:1016B000704700001400002000B5FFF7F7FF044951
:1016C0000968C1F38221034A515CC84000BD000093
:1016D000083802408C29000800B5FFF7E7FF0449ED
:1016E0000968C1F34231034A515CC84000BD0000A3
:1016F000083802408C2900082DE9F0470024002515
:101700000026A1462548006800F00C0020B10428FE
:1017100005D008283AD105E0DFF8849039E0DFF8F9
:10172000849036E01D48001F006800F03F041B480D
:10173000001F006800F4800078B11A481749091F9B
:101740000968C1F38811A0FB0170014622460023FD
:101750003846FEF735FD05460EE011480F49091FD2
:101760000968C1F38811A0FB0170014622460023DD
:101770003846FEF725FD05460848001F0068C0F3FF
:101780000140401C4600B5FBF6F902E0DFF810907E
:1017900000BF00BF4846BDE8F0870000083802409F
:1017A0000024F40000127A00F8B504460CB90120B8
:1017B000F8BD207800F00100002874D0F9480068D6
:1017C00000F00C0004280DD0F648006800F00C0072
:1017D000082813D1F348001F006800F48000B0F51A
:1017E000800F0BD1EF4808380068C0F34040002854
:1017F00059D06068002856D10120D9E700BF606841
:10180000B0F5803F08D1E7480838006840F48030E0
:10181000E449083908601EE06068B0F5A02F0DD1DA
:10182000E0480838006840F48020DE490839086044
:101830000846006840F4803008600CE0D948083859
:10184000006820F48030D7490839086008460068ED
:1018500020F48020086000BF606890B1FFF78AFD27
:10186000054606E0FFF786FD401B642801D90320EA
:101870009EE7CC4808380068C0F340400028F1D00B
:1018800011E0FFF777FD054606E0FFF773FD401B0B
:10189000642801D903208BE7C24808380068C0F3E8
:1018A00040400028F1D1207800F0020002285FD1EA
:1018B000BC48006800F00C0058B1BA48006800F05D
:1018C0000C0008281CD1B748001F006800F48000F5
:1018D000B0B9B44808380068C0F3400020B1E068EF
:1018E000012801D0012063E7AE480838006820F0E5
:1018F000F800216940EAC100AA490839086037E0C8
:10190000E06800B30120A8490860FFF733FD0546F1
:1019100006E0FFF72FFD401B022801D9032047E70F
:10192000A04808380068C0F340000028F1D09D4866
:101930000838006820F0F800216940EAC1009949A0
:101940000839086014E0002097490860FFF712FD8D
:10195000054606E0FFF70EFD401B022801D90320D3
:1019600026E7904808380068C0F340000028F1D10D
:10197000207800F0080008282CD16069A8B1012067
:101980008A490860FFF7F6FC054606E0FFF7F2FC1F
:10199000401B022801D903200AE782486C30006806
:1019A000C0F340000028F1D014E000207F49086017
:1019B000FFF7E0FC054606E0FFF7DCFC401B0228D1
:1019C00001D90320F4E677486C300068C0F340008A
:1019D0000028F1D1207800F00400042870D10026FE
:1019E00070483830006800F0805090B900BF002087
:1019F00000906C483830006840F0805069493831B8
:101A000008600846006800F08050009000BF00BFEA
:101A100001266748006800F48070B0B96448006827
:101A200040F4807062490860FFF7A4FC054606E0B8
:101A3000FFF7A0FC401B022801D90320B8E65C4850
:101A4000006800F480700028F2D000BFA068012870
:101A500008D154486830006840F0010051496831AD
:101A600008601DE0A06805280DD14E486830006868
:101A700040F004004B49683108600846006840F0B7
:101A8000010008600CE047486830006820F0010061
:101A90004449683108600846006820F00400086086
:101AA00000BFA068A8B1FFF765FC054609E0FFF795
:101AB00061FC401B41F28831884202D9032077E65D
:101AC00026E0384868300068C0F340000028EED0B7
:101AD00013E0FFF74FFC054608E0FFF74BFC401B07
:101AE00041F28831884201D9032061E62D486830EF
:101AF0000068C0F340000028EFD1012E07D129482B
:101B00003830006820F0805026493831086000BF26
:101B1000A069B8B32348006800F00C0008285ED024
:101B2000A069022846D100201F490866FFF722FC61
:101B3000054606E0FFF71EFC401B022801D90320E2
:101B400036E6184808380068C0F340600028F1D134
:101B5000D4E907010843616A40EA81110122A06AC1
:101B6000C2EB500041EA00412C20005D41EA0060D8
:101B70000C49091F086001200B490866FFF7FAFBB2
:101B8000054607E02DE0FFF7F5FB401B022801D9D1
:101B900003200DE6034808380068C0F340600028C1
:101BA000F1D01EE00838024000004742800E474254
:101BB0000070004000200C490866FFF7DBFB05467B
:101BC00006E0FFF7D7FB401B022801D90320EFE511
:101BD00006480068C0F340600028F2D101E001200F
:101BE000E6E50020E4E5000000004742003802403E
:101BF00070B504462546681EB0F1807F01D30120F0
:101C00000FE0681E4FF0E02148610F214FF0FF30D8
:101C100000F046FE00204FF0E021886107200861B7
:101C2000002070BD704710B504460CB9012010BDEE
:101C3000A06900B100E000BF94F8390028B9002085
:101C400084F83800204600F027F8242084F8390072
:101C50002068C06820F400502168C860204600F069
:101C600061FC2068006920F49040216808612068C8
:101C7000406920F02A00216848612068C06840F46B
:101C800000502168C8600020E063202084F83900FB
:101C900084F83A000020CAE710B586B00446142143
:101CA00001A8FEF7C5FA77492068884273D100BFC2
:101CB000002000907448006840F0100072490860ED
:101CC0000846006800F01000009000BF00BF00BF91
:101CD000002000906C481438006840F001006A4908
:101CE000143908600846006800F00100009000BF49
:101CF00000BF4FF4C06001900220029001200390C9
:101D0000032004900720059001A96048FFF724FAFA
:101D10005F48604908604FF00060486000215D48FE
:101D20008160C1604FF48061016100214161816186
:101D30004FF48071C161002101624162FFF738F9FF
:101D400008B1FEF799FB00BF52486063846300BF8F
:101D50004F487830504908604FF00060486040219B
:101D60004D4881600021C1604FF480610161002114
:101D7000416181614FF48071C16100210162416262
:101D8000FFF716F908B1FEF777FB00BF4248206362
:101D9000846375E0FFE741492068884270D100BF45
:101DA000002000903848001F006840F40030364999
:101DB000091F08600846006800F40030009000BF6A
:101DC00000BF00BF002000902F481438006840F08A
:101DD00001002D49143908600846006800F0010030
:101DE000009000BF00BF0C20019002200290012053
:101DF0000390032004900720059001A92348FFF7D2
:101E0000ABF92748274908604FF00060486040213F
:101E1000244881600021C1604FF48061016100218C
:101E2000416181614FF48071C161002101624162B1
:101E3000FFF7BEF808B1FEF71FFB00BF194820638B
:101E4000846300BF16481838174908604FF00060D7
:101E50004860002114488160C1604FF480610161D5
:101E6000002141618161C16101624162FFF7A0F817
:101E700008B1FEF701FB00BF0B486063846300BF3D
:101E800006B010BD0010014044380240000002407E
:101E900040640240C00000202001002000440040B7
:101EA000A060024080010020E001002077B581B0F1
:101EB0000446154694F83A00202850D1029800B103
:101EC00015B9012004B070BD00BF94F83800012896
:101ED00001D10220F6E7012084F8380000BF029803
:101EE000A062A5850020E063222084F83A001D4806
:101EF000616BC8631C48616B08641C48616BC864F3
:101F00000020616B086502AE32682368191D2B46FC
:101F1000606BFFF7C3F800BF0020009020680068E6
:101F2000009020684068009000BF00BF00BF002004
:101F300084F8380000BF2068C06840F480702168D1
:101F4000C8602068406940F001002168486120684D
:101F5000406940F04000216848610020B2E702205B
:101F6000B0E70000592400089F2400080924000855
:101F700010B5044617492068884229D116480078D0
:101F80002A2820D11448807823281CD11248407870
:101F900001280AD1012201031048FFF7E5F90222C6
:101FA0000F49204600F020F80DE00B484078022849
:101FB00009D10022C1020948FFF7D6F902220849D7
:101FC000204600F011F8032203492046FFF76EFF78
:101FD00010BD0000004400409C020020000C0240A4
:101FE0000600002070470000F7B50446154694F837
:101FF000390020283DD1019800B10DB90120FEBD66
:1020000000BF94F83800012801D10220F7E7012031
:1020100084F8380000BF01982062A584E584002080
:10202000E063212084F839001348216BC86313480A
:10203000216B08641248216BC8640020216B08657D
:1020400001AE23681A1D31682B46206BFFF726F876
:102050006FF040002168086000BF002084F838005D
:1020600000BF2068406940F080002168486100207E
:10207000C5E70220C3E70000AD240008E324000800
:10208000092400080A4A0168914210D10021C18444
:102090000168496921F08001026851610168C968DD
:1020A00041F040010268D160202180F8391070476A
:1020B00000440040704700BFFEE7000010B50E4826
:1020C0000E4908601520486000210C488160C160FD
:1020D0004FF4302101614FF440114161002101763C
:1020E00041768176C17601774177FEF7FFFC08B132
:1020F000FEF7C2F910BD0000006400401800002087
:1021000008B500BF002000901E48006840F4800021
:102110001C4908600846006800F48000009000BF79
:1021200000BF00BF002000900846006840F4001087
:1021300008600846006800F40010009000BF00BF6F
:10214000002211461020FFF79FF91020FFF78CF9AD
:10215000002211461120FFF797F91120FFF784F9AB
:10216000002211463A20FFF78FF93A20FFF77CF959
:10217000002211464620FFF787F94620FFF774F941
:1021800008BD00003038024000B587B0142102A815
:10219000FEF74EF800BF002001903048006840F084
:1021A00080002E4908600846006800F08000019019
:1021B00000BF00BF00BF002001900846006840F04B
:1021C000010008600846006800F00100019000BFAF
:1021D00000BF00BF002001900846006840F00800E2
:1021E00008600846006800F00800019000BF00BFCA
:1021F00000BF002001900846006840F0020008601F
:102200000846006800F00200019000BF00BF0022F5
:102210004FF470411248FFF7A7F8012002901148CF
:1022200003900020049002A90F48FEF795FF4FF499
:10223000704002900120039000200490059002A9B4
:102240000748FEF789FF002211460620FFF71CF918
:102250000620FFF709F907B000BD00003038024042
:10226000000C0240000011100000024010B50B48A5
:102270000B4908604FF416504860002108488160FF
:10228000C16001610C21416100218161C161FFF7E1
:10229000CAFC08B1FEF7F0F810BD000000100140C4
:1022A0004000002010B50B480B4908604FF4165051
:1022B0004860002108488160C16001610C214161D2
:1022C00000218161C161FFF7AEFC08B1FEF7D4F8CF
:1022D00010BD0000004400408000002000BFFEE769
:1022E00070477047704710B5FFF74AF810BD0000FF
:1022F00000B593B0302107A8FDF79AFF142102A87A
:10230000FDF796FF00BF002001902448006840F0D0
:102310008050224908600846006800F08050019013
:1023200000BF00BF00BF002001901D48006840F4BE
:1023300080401B4908600846006800F48040019016
:1023400000BF00BF012007900004089002200D90FC
:1023500041050E9104210F91A821109102211191A4
:102360000421129107A8FFF71FFA08B1FEF784F8BD
:102370000F20029002200390002004904FF4A05000
:1023800005904FF480500690052102A8FFF7CEF883
:1023900008B1FEF771F813B000BD000040380240EC
:1023A000007000401448006840F470001249086052
:1023B0001248006840F001001049086000200F49F1
:1023C000083108600D4800680D4908400B49086055
:1023D0000C48091D0860081F006820F48020091FB0
:1023E0000860002005490C3108604FF00060024988
:1023F000803908607047000088ED00E00038024036
:10240000FFFFF6FE1030002470B506460025B46BC1
:1024100020684069C0F3C01594F83900212805D11F
:1024200025B10020E084204600F072F82068406961
:10243000C0F3801594F83A00222805D125B1002078
:10244000E085204600F054F8E06B40F01000E063B7
:102450002046FFF7E7FB70BD70B50546AC6B2868FA
:10246000006800F48070B0B90020E0852068C06882
:1024700020F480702168C8602068406920F0010065
:10248000216848612068406920F040002168486167
:10249000202084F83A002046FFF76AFD70BD70B531
:1024A0000446A56B2846FFF79DFD70BD70B5054637
:1024B000AC6B2868006800F4807070B90020E0847C
:1024C0002068406920F08000216848612068C06869
:1024D00040F040002168C86002E02046FFF7D2FDCE
:1024E00070BD70B50446A56B2846FFF7E3FD70BDCF
:1024F0000168C96821F490710268D1600168496976
:1025000021F0010102685161202180F83A107047E2
:102510000168C96821F0C0010268D160202180F8FB
:10252000391070472DE9F04104462068006920F415
:102530004050E1680843216808612169A0680843A8
:1025400061690843E16940EA01052068C06849F211
:102550000C61884328432168C8602068406920F4E2
:102560004070A169084321684861E069B0F5004FF7
:102570007ED1C4492068884203D0C349206888427C
:102580005DD1FFF7A9F800EBC00101EB0010616815
:102590004900B0FBF1F06421B0FBF1F00601FFF758
:1025A0009BF800EBC00101EB001061684900B0FB33
:1025B000F1F7FFF791F800EBC00101EB0010616843
:1025C0004900B0FBF1F06421B0FBF1F000EBC00179
:1025D00001EB0010A7EB8000322101EBC000642169
:1025E000B0FBF1F000F0F80006EB4006FFF774F8DE
:1025F00000EBC00101EB001061684900B0FBF1F78E
:10260000FFF76AF800EBC00101EB001061684900B8
:10261000B0FBF1F06421B0FBF1F000EBC00101EB85
:102620000010A7EB8000322101EBC0006421B0FB59
:10263000F1F000F0070030442168886020E1FFF7E6
:102640003BF800EBC00101EB001061684900B0FBF2
:10265000F1F06421B0FBF1F00601FFF72DF800EB7B
:10266000C00101EB001061684900B0FBF1F700E028
:1026700045E0FFF721F800EBC00101EB00106168B5
:102680004900B0FBF1F06421B0FBF1F000EBC001B8
:1026900001EB0010A7EB8000322101EBC0006421A8
:1026A000B0FBF1F000F0F80006EB4006FFF704F88D
:1026B00000EBC00101EB001061684900B0FBF1F7CD
:1026C000FEF7FAFF00EBC00101EB00106168490062
:1026D000B0FBF1F06421B0FBF1F000EBC00101EBC5
:1026E0000010A7EB8000322101EBC0006421B0FB99
:1026F000F1F000F00700304421688860C0E06149D3
:102700002068884203D06049206888425CD1FEF787
:10271000E3FF00EBC00101EB001061688900B0FB32
:10272000F1F6FEF7D9FF00EBC00101EB0010616884
:102730008900B0FBF1F06421B0FBF1F000EBC001C7
:1027400001EB0010A6EB8000322101EB00106421A8
:10275000B0FBF1F000F0F006FEF7BEFF00EBC001A9
:1027600001EB001061688900B0FBF1F06421B0FB5F
:10277000F1F006EB0016FEF7AFFF00EBC00101EB36
:10278000001061688900B0FBF1F7FEF7A5FF00EBD0
:10279000C00101EB001061688900B0FBF1F0642119
:1027A000B0FBF1F000EBC00101EB0010A7EB8000E3
:1027B000322101EB00106421B0FBF1F000F00F00BA
:1027C0003044216888605BE0FEF776FF00EBC001D3
:1027D00001EB001061688900B0FBF1F6FEF76CFFB9
:1027E00000EBC00101EB001061688900B0FBF1F063
:1027F0006421B0FBF1F000EBC00101EB0010A6EB8F
:102800008000322101EB00106421B0FBF1F000F0F8
:10281000F006FEF751FF00EBC00101EB001061680C
:102820008900B0FBF1F06421B0FBF1F006EB00167B
:10283000FEF742FF00EBC00101EB00106168890068
:10284000B0FBF1F7FEF738FF00EBC00101EB001021
:1028500061688900B0FBF1F06421B0FBF1F000EB9E
:10286000C00101EB0010A7EB8000322101EB00104A
:102870006421B0FBF1F000F00F0030442168886063
:10288000BDE8F081001001400014014000BFFEE7E8
:1028900002480068C0F30220704700000CED00E021
:1028A00010B5002804DB0A07130E054A135406E08E
:1028B0000A07140E034A00F00F031B1FD45410BD67
:1028C00000E400E018ED00E002E008C8121F08C1B3
:1028D000002AFAD170477047002001E001C1121FA1
:1028E000002AFBD170470000FEF756FDFFF700FD00
:1028F000FFF74AFCFFF704FCFFF7B8FCFFF7D2FC38
:10290000FFF7DCFB032215491548FFF7CFFA032236
:1029100012491448FFF7CAFA012013490861002040
:102920008860C8604FF41170086000200F4908618A
:1029300044F6A0000860002048608860C86001205C
:10294000C86108620A48FDF759FE0948FEF7D9F93F
:1029500002210748FDF791FD00BFFEE79C02002021
:10296000400000208000002040020020740200206F
:1029700018000020000610160006101600000000C7
:10298000000000000102030406070809000000001F
:1029900001020304B4290008000000201800000010
:1029A000C8280008CC29000818000020A006000054
:1029B000D8280008000000000000410000000000CE
:0C29C00010000000010000000024F400E2
:040000050800018965
:00000001FF
